{
  "contractName": "ZauctionSupportingZNS",
  "abi": [
    {
      "inputs": [
        {
          "internalType": "contract IERC20",
          "name": "tokenAddress",
          "type": "address"
        },
        {
          "internalType": "contract IRegistrar",
          "name": "registrarAddress",
          "type": "address"
        }
      ],
      "stateMutability": "nonpayable",
      "type": "constructor"
    },
    {
      "anonymous": false,
      "inputs": [
        {
          "indexed": false,
          "internalType": "uint256",
          "name": "auctionid",
          "type": "uint256"
        },
        {
          "indexed": true,
          "internalType": "address",
          "name": "bidder",
          "type": "address"
        },
        {
          "indexed": true,
          "internalType": "address",
          "name": "seller",
          "type": "address"
        },
        {
          "indexed": false,
          "internalType": "uint256",
          "name": "amount",
          "type": "uint256"
        },
        {
          "indexed": false,
          "internalType": "address",
          "name": "nftaddress",
          "type": "address"
        },
        {
          "indexed": false,
          "internalType": "uint256",
          "name": "tokenid",
          "type": "uint256"
        },
        {
          "indexed": false,
          "internalType": "uint256",
          "name": "expireblock",
          "type": "uint256"
        }
      ],
      "name": "BidAccepted",
      "type": "event"
    },
    {
      "anonymous": false,
      "inputs": [
        {
          "indexed": true,
          "internalType": "address",
          "name": "bidder",
          "type": "address"
        },
        {
          "indexed": true,
          "internalType": "uint256",
          "name": "auctionid",
          "type": "uint256"
        },
        {
          "indexed": false,
          "internalType": "uint256",
          "name": "price",
          "type": "uint256"
        }
      ],
      "name": "Cancelled",
      "type": "event"
    },
    {
      "inputs": [
        {
          "internalType": "address",
          "name": "",
          "type": "address"
        },
        {
          "internalType": "uint256",
          "name": "",
          "type": "uint256"
        }
      ],
      "name": "consumed",
      "outputs": [
        {
          "internalType": "bool",
          "name": "",
          "type": "bool"
        }
      ],
      "stateMutability": "view",
      "type": "function",
      "constant": true
    },
    {
      "inputs": [
        {
          "internalType": "bytes",
          "name": "signature",
          "type": "bytes"
        },
        {
          "internalType": "uint256",
          "name": "auctionid",
          "type": "uint256"
        },
        {
          "internalType": "address",
          "name": "bidder",
          "type": "address"
        },
        {
          "internalType": "uint256",
          "name": "bid",
          "type": "uint256"
        },
        {
          "internalType": "address",
          "name": "nftaddress",
          "type": "address"
        },
        {
          "internalType": "uint256",
          "name": "tokenid",
          "type": "uint256"
        },
        {
          "internalType": "uint256",
          "name": "minbid",
          "type": "uint256"
        },
        {
          "internalType": "uint256",
          "name": "startblock",
          "type": "uint256"
        },
        {
          "internalType": "uint256",
          "name": "expireblock",
          "type": "uint256"
        }
      ],
      "name": "acceptBid",
      "outputs": [],
      "stateMutability": "nonpayable",
      "type": "function"
    },
    {
      "inputs": [
        {
          "internalType": "uint256",
          "name": "auctionid",
          "type": "uint256"
        },
        {
          "internalType": "uint256",
          "name": "price",
          "type": "uint256"
        }
      ],
      "name": "cancelBidsUnderPrice",
      "outputs": [],
      "stateMutability": "nonpayable",
      "type": "function"
    },
    {
      "inputs": [
        {
          "internalType": "bytes32",
          "name": "hash",
          "type": "bytes32"
        },
        {
          "internalType": "bytes",
          "name": "signature",
          "type": "bytes"
        }
      ],
      "name": "recover",
      "outputs": [
        {
          "internalType": "address",
          "name": "",
          "type": "address"
        }
      ],
      "stateMutability": "pure",
      "type": "function",
      "constant": true
    },
    {
      "inputs": [
        {
          "internalType": "bytes32",
          "name": "hash",
          "type": "bytes32"
        }
      ],
      "name": "toEthSignedMessageHash",
      "outputs": [
        {
          "internalType": "bytes32",
          "name": "",
          "type": "bytes32"
        }
      ],
      "stateMutability": "pure",
      "type": "function",
      "constant": true
    }
  ],
  "bytecode": "0x60806040523480156200001157600080fd5b5060405162001f1638038062001f168339818101604052810190620000379190620000ee565b816000806101000a81548173ffffffffffffffffffffffffffffffffffffffff021916908373ffffffffffffffffffffffffffffffffffffffff16021790555080600160006101000a81548173ffffffffffffffffffffffffffffffffffffffff021916908373ffffffffffffffffffffffffffffffffffffffff1602179055505050620001bf565b600081519050620000d1816200018b565b92915050565b600081519050620000e881620001a5565b92915050565b600080604083850312156200010257600080fd5b60006200011285828601620000c0565b92505060206200012585828601620000d7565b9150509250929050565b60006200013c826200016b565b9050919050565b600062000150826200012f565b9050919050565b600062000164826200012f565b9050919050565b600073ffffffffffffffffffffffffffffffffffffffff82169050919050565b620001968162000143565b8114620001a257600080fd5b50565b620001b08162000157565b8114620001bc57600080fd5b50565b611d4780620001cf6000396000f3fe608060405234801561001057600080fd5b50600436106100575760003560e01c806316d7b3eb1461005c57806319045a251461007857806349fcea56146100a8578063918a15cf146100c4578063da357efd146100f4575b600080fd5b61007660048036038101906100719190610ffc565b610124565b005b610092600480360381019061008d9190610eca565b6101cc565b60405161009f919061134e565b60405180910390f35b6100c260048036038101906100bd9190610f1e565b6101e9565b005b6100de60048036038101906100d99190610ea1565b610786565b6040516100eb91906113bb565b60405180910390f35b61010e60048036038101906101099190610e3c565b610798565b60405161011b91906113a0565b60405180910390f35b80600360003373ffffffffffffffffffffffffffffffffffffffff1673ffffffffffffffffffffffffffffffffffffffff168152602001908152602001600020600084815260200190815260200160002081905550813373ffffffffffffffffffffffffffffffffffffffff167f50f87f46257f76778258778496e8790189350718ebd0d5cb5f0735d3bad2380d836040516101c091906115fd565b60405180910390a35050565b60006101e182846107c790919063ffffffff16565b905092915050565b4382111561022c576040517f08c379a00000000000000000000000000000000000000000000000000000000081526004016102239061145d565b60405180910390fd5b43811161026e576040517f08c379a00000000000000000000000000000000000000000000000000000000081526004016102659061153d565b60405180910390fd5b858311156102b1576040517f08c379a00000000000000000000000000000000000000000000000000000000081526004016102a89061151d565b60405180910390fd5b3373ffffffffffffffffffffffffffffffffffffffff168773ffffffffffffffffffffffffffffffffffffffff161415610320576040517f08c379a00000000000000000000000000000000000000000000000000000000081526004016103179061157d565b60405180910390fd5b600088304689898989898960405160200161034399989796959493929190611618565b60405160208183030381529060405280519060200120905061036d61036782610786565b8b6101cc565b73ffffffffffffffffffffffffffffffffffffffff168873ffffffffffffffffffffffffffffffffffffffff16146103da576040517f08c379a00000000000000000000000000000000000000000000000000000000081526004016103d1906115dd565b60405180910390fd5b600260008973ffffffffffffffffffffffffffffffffffffffff1673ffffffffffffffffffffffffffffffffffffffff16815260200190815260200160002060008a815260200190815260200160002060009054906101000a900460ff1615610478576040517f08c379a000000000000000000000000000000000000000000000000000000000815260040161046f9061149d565b60405180910390fd5b600360008973ffffffffffffffffffffffffffffffffffffffff1673ffffffffffffffffffffffffffffffffffffffff16815260200190815260200160002060008a815260200190815260200160002054871161050a576040517f08c379a0000000000000000000000000000000000000000000000000000000008152600401610501906114bd565b60405180910390fd5b60008690506001600260008b73ffffffffffffffffffffffffffffffffffffffff1673ffffffffffffffffffffffffffffffffffffffff16815260200190815260200160002060008c815260200190815260200160002060006101000a81548160ff0219169083151502179055506105bb60008054906101000a900473ffffffffffffffffffffffffffffffffffffffff168a33600a8c6105ab919061178b565b8c6105b691906117bc565b610891565b61069d60008054906101000a900473ffffffffffffffffffffffffffffffffffffffff168a600160009054906101000a900473ffffffffffffffffffffffffffffffffffffffff1673ffffffffffffffffffffffffffffffffffffffff16639e942ace8a6040518263ffffffff1660e01b815260040161063b91906115fd565b60206040518083038186803b15801561065357600080fd5b505afa158015610667573d6000803e3d6000fd5b505050506040513d601f19601f8201168201806040525081019061068b9190610e13565b600a8c610698919061178b565b610891565b8073ffffffffffffffffffffffffffffffffffffffff166342842e0e338b896040518463ffffffff1660e01b81526004016106da93929190611369565b600060405180830381600087803b1580156106f457600080fd5b505af1158015610708573d6000803e3d6000fd5b505050503373ffffffffffffffffffffffffffffffffffffffff168973ffffffffffffffffffffffffffffffffffffffff167f892a66c9301632478fed9b6fb1ff029dc070dd25bf2a3f8fd1688a4399bc46bc8c8b858b896040516107719594939291906116a5565b60405180910390a35050505050505050505050565b60006107918261091a565b9050919050565b60026020528160005260406000206020528060005260406000206000915091509054906101000a900460ff1681565b6000806000806041855114156107f4576020850151925060408501519150606085015160001a905061087a565b60408551141561083e576040850151602086015193507f7fffffffffffffffffffffffffffffffffffffffffffffffffffffffffffffff81169250601b8160ff1c01915050610879565b6040517f08c379a00000000000000000000000000000000000000000000000000000000081526004016108709061147d565b60405180910390fd5b5b6108868682858561094a565b935050505092915050565b610914846323b872dd60e01b8585856040516024016108b293929190611369565b604051602081830303815290604052907bffffffffffffffffffffffffffffffffffffffffffffffffffffffff19166020820180517bffffffffffffffffffffffffffffffffffffffffffffffffffffffff8381831617835250505050610ad5565b50505050565b60008160405160200161092d9190611328565b604051602081830303815290604052805190602001209050919050565b60007f7fffffffffffffffffffffffffffffff5d576e7357a4501ddfe92f46681b20a08260001c11156109b2576040517f08c379a00000000000000000000000000000000000000000000000000000000081526004016109a9906114dd565b60405180910390fd5b601b8460ff1614806109c75750601c8460ff16145b610a06576040517f08c379a00000000000000000000000000000000000000000000000000000000081526004016109fd9061155d565b60405180910390fd5b600060018686868660405160008152602001604052604051610a2b94939291906113d6565b6020604051602081039080840390855afa158015610a4d573d6000803e3d6000fd5b505050602060405103519050600073ffffffffffffffffffffffffffffffffffffffff168173ffffffffffffffffffffffffffffffffffffffff161415610ac9576040517f08c379a0000000000000000000000000000000000000000000000000000000008152600401610ac09061143d565b60405180910390fd5b80915050949350505050565b6000610b37826040518060400160405280602081526020017f5361666545524332303a206c6f772d6c6576656c2063616c6c206661696c65648152508573ffffffffffffffffffffffffffffffffffffffff16610b9c9092919063ffffffff16565b9050600081511115610b975780806020019051810190610b579190610e78565b610b96576040517f08c379a0000000000000000000000000000000000000000000000000000000008152600401610b8d906115bd565b60405180910390fd5b5b505050565b6060610bab8484600085610bb4565b90509392505050565b606082471015610bf9576040517f08c379a0000000000000000000000000000000000000000000000000000000008152600401610bf0906114fd565b60405180910390fd5b610c0285610cc8565b610c41576040517f08c379a0000000000000000000000000000000000000000000000000000000008152600401610c389061159d565b60405180910390fd5b6000808673ffffffffffffffffffffffffffffffffffffffff168587604051610c6a9190611311565b60006040518083038185875af1925050503d8060008114610ca7576040519150601f19603f3d011682016040523d82523d6000602084013e610cac565b606091505b5091509150610cbc828286610cdb565b92505050949350505050565b600080823b905060008111915050919050565b60608315610ceb57829050610d3b565b600083511115610cfe5782518084602001fd5b816040517f08c379a0000000000000000000000000000000000000000000000000000000008152600401610d32919061141b565b60405180910390fd5b9392505050565b6000610d55610d508461171d565b6116f8565b905082815260208101848484011115610d6d57600080fd5b610d7884828561184f565b509392505050565b600081359050610d8f81611cb5565b92915050565b600081519050610da481611cb5565b92915050565b600081519050610db981611ccc565b92915050565b600081359050610dce81611ce3565b92915050565b600082601f830112610de557600080fd5b8135610df5848260208601610d42565b91505092915050565b600081359050610e0d81611cfa565b92915050565b600060208284031215610e2557600080fd5b6000610e3384828501610d95565b91505092915050565b60008060408385031215610e4f57600080fd5b6000610e5d85828601610d80565b9250506020610e6e85828601610dfe565b9150509250929050565b600060208284031215610e8a57600080fd5b6000610e9884828501610daa565b91505092915050565b600060208284031215610eb357600080fd5b6000610ec184828501610dbf565b91505092915050565b60008060408385031215610edd57600080fd5b6000610eeb85828601610dbf565b925050602083013567ffffffffffffffff811115610f0857600080fd5b610f1485828601610dd4565b9150509250929050565b60008060008060008060008060006101208a8c031215610f3d57600080fd5b60008a013567ffffffffffffffff811115610f5757600080fd5b610f638c828d01610dd4565b9950506020610f748c828d01610dfe565b9850506040610f858c828d01610d80565b9750506060610f968c828d01610dfe565b9650506080610fa78c828d01610d80565b95505060a0610fb88c828d01610dfe565b94505060c0610fc98c828d01610dfe565b93505060e0610fda8c828d01610dfe565b925050610100610fec8c828d01610dfe565b9150509295985092959850929598565b6000806040838503121561100f57600080fd5b600061101d85828601610dfe565b925050602061102e85828601610dfe565b9150509250929050565b611041816117f0565b82525050565b61105081611802565b82525050565b61105f8161180e565b82525050565b6110766110718261180e565b6118c2565b82525050565b60006110878261174e565b6110918185611764565b93506110a181856020860161185e565b80840191505092915050565b60006110b882611759565b6110c2818561176f565b93506110d281856020860161185e565b6110db81611959565b840191505092915050565b60006110f360188361176f565b91506110fe8261196a565b602082019050919050565b6000611116601f8361176f565b915061112182611993565b602082019050919050565b6000611139601f8361176f565b9150611144826119bc565b602082019050919050565b600061115c601c83611780565b9150611167826119e5565b601c82019050919050565b600061117f601f8361176f565b915061118a82611a0e565b602082019050919050565b60006111a2601c8361176f565b91506111ad82611a37565b602082019050919050565b60006111c560228361176f565b91506111d082611a60565b604082019050919050565b60006111e860268361176f565b91506111f382611aaf565b604082019050919050565b600061120b60238361176f565b915061121682611afe565b604082019050919050565b600061122e60198361176f565b915061123982611b4d565b602082019050919050565b600061125160228361176f565b915061125c82611b76565b604082019050919050565b600061127460168361176f565b915061127f82611bc5565b602082019050919050565b6000611297601d8361176f565b91506112a282611bee565b602082019050919050565b60006112ba602a8361176f565b91506112c582611c17565b604082019050919050565b60006112dd60248361176f565b91506112e882611c66565b604082019050919050565b6112fc81611838565b82525050565b61130b81611842565b82525050565b600061131d828461107c565b915081905092915050565b60006113338261114f565b915061133f8284611065565b60208201915081905092915050565b60006020820190506113636000830184611038565b92915050565b600060608201905061137e6000830186611038565b61138b6020830185611038565b61139860408301846112f3565b949350505050565b60006020820190506113b56000830184611047565b92915050565b60006020820190506113d06000830184611056565b92915050565b60006080820190506113eb6000830187611056565b6113f86020830186611302565b6114056040830185611056565b6114126060830184611056565b95945050505050565b6000602082019050818103600083015261143581846110ad565b905092915050565b60006020820190508181036000830152611456816110e6565b9050919050565b6000602082019050818103600083015261147681611109565b9050919050565b600060208201905081810360008301526114968161112c565b9050919050565b600060208201905081810360008301526114b681611172565b9050919050565b600060208201905081810360008301526114d681611195565b9050919050565b600060208201905081810360008301526114f6816111b8565b9050919050565b60006020820190508181036000830152611516816111db565b9050919050565b60006020820190508181036000830152611536816111fe565b9050919050565b6000602082019050818103600083015261155681611221565b9050919050565b6000602082019050818103600083015261157681611244565b9050919050565b6000602082019050818103600083015261159681611267565b9050919050565b600060208201905081810360008301526115b68161128a565b9050919050565b600060208201905081810360008301526115d6816112ad565b9050919050565b600060208201905081810360008301526115f6816112d0565b9050919050565b600060208201905061161260008301846112f3565b92915050565b60006101208201905061162e600083018c6112f3565b61163b602083018b611038565b611648604083018a6112f3565b61165560608301896112f3565b6116626080830188611038565b61166f60a08301876112f3565b61167c60c08301866112f3565b61168960e08301856112f3565b6116976101008301846112f3565b9a9950505050505050505050565b600060a0820190506116ba60008301886112f3565b6116c760208301876112f3565b6116d46040830186611038565b6116e160608301856112f3565b6116ee60808301846112f3565b9695505050505050565b6000611702611713565b905061170e8282611891565b919050565b6000604051905090565b600067ffffffffffffffff8211156117385761173761192a565b5b61174182611959565b9050602081019050919050565b600081519050919050565b600081519050919050565b600081905092915050565b600082825260208201905092915050565b600081905092915050565b600061179682611838565b91506117a183611838565b9250826117b1576117b06118fb565b5b828204905092915050565b60006117c782611838565b91506117d283611838565b9250828210156117e5576117e46118cc565b5b828203905092915050565b60006117fb82611818565b9050919050565b60008115159050919050565b6000819050919050565b600073ffffffffffffffffffffffffffffffffffffffff82169050919050565b6000819050919050565b600060ff82169050919050565b82818337600083830152505050565b60005b8381101561187c578082015181840152602081019050611861565b8381111561188b576000848401525b50505050565b61189a82611959565b810181811067ffffffffffffffff821117156118b9576118b861192a565b5b80604052505050565b6000819050919050565b7f4e487b7100000000000000000000000000000000000000000000000000000000600052601160045260246000fd5b7f4e487b7100000000000000000000000000000000000000000000000000000000600052601260045260246000fd5b7f4e487b7100000000000000000000000000000000000000000000000000000000600052604160045260246000fd5b6000601f19601f8301169050919050565b7f45434453413a20696e76616c6964207369676e61747572650000000000000000600082015250565b7f7a41756374696f6e3a2061756374696f6e206861736e74207374617274656400600082015250565b7f45434453413a20696e76616c6964207369676e6174757265206c656e67746800600082015250565b7f19457468657265756d205369676e6564204d6573736167653a0a333200000000600082015250565b7f7a41756374696f6e3a206461746120616c726561647920636f6e73756d656400600082015250565b7f7a41756374696f6e3a2062656c6f772063616e63656c20707269636500000000600082015250565b7f45434453413a20696e76616c6964207369676e6174757265202773272076616c60008201527f7565000000000000000000000000000000000000000000000000000000000000602082015250565b7f416464726573733a20696e73756666696369656e742062616c616e636520666f60008201527f722063616c6c0000000000000000000000000000000000000000000000000000602082015250565b7f7a41756374696f6e3a2063616e7420616363657074206269642062656c6f772060008201527f6d696e0000000000000000000000000000000000000000000000000000000000602082015250565b7f7a41756374696f6e3a2061756374696f6e206578706972656400000000000000600082015250565b7f45434453413a20696e76616c6964207369676e6174757265202776272076616c60008201527f7565000000000000000000000000000000000000000000000000000000000000602082015250565b7f7a41756374696f6e3a2073616c6520746f2073656c6600000000000000000000600082015250565b7f416464726573733a2063616c6c20746f206e6f6e2d636f6e7472616374000000600082015250565b7f5361666545524332303a204552433230206f7065726174696f6e20646964206e60008201527f6f74207375636365656400000000000000000000000000000000000000000000602082015250565b7f7a41756374696f6e3a207265636f766572656420696e636f727265637420626960008201527f6464657200000000000000000000000000000000000000000000000000000000602082015250565b611cbe816117f0565b8114611cc957600080fd5b50565b611cd581611802565b8114611ce057600080fd5b50565b611cec8161180e565b8114611cf757600080fd5b50565b611d0381611838565b8114611d0e57600080fd5b5056fea2646970667358221220bdaadbf97735e494cf77ff52a605accc72428efdbcbee139478cb6287c0f009b64736f6c63430008040033",
  "immutableReferences": {},
  "source": "pragma solidity ^0.8.4;\r\n\r\nimport \"@openzeppelin/contracts/utils/cryptography/ECDSA.sol\";\r\nimport \"@openzeppelin/contracts/token/ERC20/utils/SafeERC20.sol\";\r\nimport \"@openzeppelin/contracts/token/ERC721/IERC721.sol\";\r\nimport \"./IRegistrar.sol\";\r\n\r\ncontract ZauctionSupportingZNS{\r\n    using ECDSA for bytes32;\r\n\r\n    IERC20 token;\r\n    IRegistrar registrar;\r\n    mapping(address => mapping(uint256 => bool)) public consumed;\r\n    mapping(address => mapping(uint256 => uint256)) cancelprice;\r\n    \r\n    event Cancelled(address indexed bidder, uint256 indexed auctionid, uint256 price);\r\n    event BidAccepted(\r\n        uint256 auctionid, \r\n        address indexed bidder, \r\n        address indexed seller, \r\n        uint256 amount, \r\n        address nftaddress, \r\n        uint256 tokenid, \r\n        uint256 expireblock\r\n    );\r\n\r\n    constructor(IERC20 tokenAddress, IRegistrar registrarAddress) {\r\n        token = tokenAddress;\r\n        registrar = registrarAddress;\r\n    }\r\n\r\n    /// recovers bidder's signature based on seller's proposed data and, if bid data hash matches the message hash, transfers nft and payment\r\n    /// @param signature type encoded message signed by the bidder\r\n    /// @param auctionid unique per address auction identifier chosen by seller\r\n    /// @param bidder address of who the seller says the bidder is, for confirmation of the recovered bidder\r\n    /// @param bid token amount bid\r\n    /// @param nftaddress contract address of the nft we are transferring\r\n    /// @param tokenid token id we are transferring\r\n    /// @param minbid minimum bid allowed\r\n    /// @param startblock block number at which acceptBid starts working\r\n    /// @param expireblock block number at which acceptBid stops working\r\n    function acceptBid(\r\n        bytes memory signature,\r\n        uint256 auctionid, \r\n        address bidder, \r\n        uint256 bid, \r\n        address nftaddress, \r\n        uint256 tokenid, \r\n        uint256 minbid,\r\n        uint256 startblock,\r\n        uint256 expireblock) external \r\n    {    \r\n        require(startblock <= block.number, \"zAuction: auction hasnt started\");\r\n        require(expireblock > block.number, \"zAuction: auction expired\");\r\n        require(minbid <= bid, \"zAuction: cant accept bid below min\");\r\n        require(bidder != msg.sender, \"zAuction: sale to self\");\r\n        //require(registrar.isDomainMetadataLocked(tokenid), \"zAuction: ZNS domain metadata must be locked\");\r\n\r\n        bytes32 data = keccak256(abi.encode(\r\n            auctionid, address(this), block.chainid, bid, nftaddress, tokenid, minbid, startblock, expireblock));\r\n        require(bidder == recover(toEthSignedMessageHash(data), signature),\r\n            \"zAuction: recovered incorrect bidder\");\r\n        require(!consumed[bidder][auctionid], \"zAuction: data already consumed\");\r\n        require(bid > cancelprice[bidder][auctionid], \"zAuction: below cancel price\");\r\n\r\n        IERC721 nftcontract = IERC721(nftaddress);\r\n        consumed[bidder][auctionid] = true;\r\n        SafeERC20.safeTransferFrom(token, bidder, msg.sender, bid - (bid / 10));\r\n        SafeERC20.safeTransferFrom(token, bidder, registrar.minterOf(tokenid), bid / 10);\r\n        nftcontract.safeTransferFrom(msg.sender, bidder, tokenid);\r\n        emit BidAccepted(auctionid, bidder, msg.sender, bid, address(nftcontract), tokenid, expireblock);\r\n    }\r\n    \r\n    /// invalidates all sender's bids at and under given price\r\n    /// @param auctionid unique per address auction identifier chosen by seller\r\n    /// @param price token amount to cancel at and under\r\n    function cancelBidsUnderPrice(uint256  auctionid, uint256 price) external {\r\n        cancelprice[msg.sender][auctionid] = price;\r\n        emit Cancelled(msg.sender, auctionid, price);\r\n    }\r\n\r\n    function recover(bytes32 hash, bytes memory signature) public pure returns (address) {\r\n        return hash.recover(signature);\r\n    }\r\n\r\n    function toEthSignedMessageHash(bytes32 hash) public pure returns (bytes32) {\r\n        return hash.toEthSignedMessageHash();\r\n    }\r\n}",
  "sourcePath": "C:/Users/durien/dev/zAuction-v2/contracts/zns/ZauctionSupportingZNS.sol",
  "compiler": {
    "name": "solc",
    "version": "0.8.4+commit.c7e474f2.Emscripten.clang"
  },
  "schemaVersion": "3.4.1",
  "updatedAt": "2021-07-23T21:27:26.511Z",
  "networkType": "ethereum",
  "devdoc": {
    "kind": "dev",
    "methods": {
      "acceptBid(bytes,uint256,address,uint256,address,uint256,uint256,uint256,uint256)": {
        "params": {
          "auctionid": "unique per address auction identifier chosen by seller",
          "bid": "token amount bid",
          "bidder": "address of who the seller says the bidder is, for confirmation of the recovered bidder",
          "expireblock": "block number at which acceptBid stops working",
          "minbid": "minimum bid allowed",
          "nftaddress": "contract address of the nft we are transferring",
          "signature": "type encoded message signed by the bidder",
          "startblock": "block number at which acceptBid starts working",
          "tokenid": "token id we are transferring"
        }
      },
      "cancelBidsUnderPrice(uint256,uint256)": {
        "params": {
          "auctionid": "unique per address auction identifier chosen by seller",
          "price": "token amount to cancel at and under"
        }
      }
    },
    "version": 1
  },
  "userdoc": {
    "kind": "user",
    "methods": {
      "acceptBid(bytes,uint256,address,uint256,address,uint256,uint256,uint256,uint256)": {
        "notice": "recovers bidder's signature based on seller's proposed data and, if bid data hash matches the message hash, transfers nft and payment"
      },
      "cancelBidsUnderPrice(uint256,uint256)": {
        "notice": "invalidates all sender's bids at and under given price"
      }
    },
    "version": 1
  }
}