{
  "contractName": "ZauctionSupportingZNS",
  "abi": [
    {
      "inputs": [
        {
          "internalType": "contract IERC20",
          "name": "wethAddress",
          "type": "address"
        },
        {
          "internalType": "contract IRegistrar",
          "name": "registrarAddress",
          "type": "address"
        }
      ],
      "stateMutability": "nonpayable",
      "type": "constructor"
    },
    {
      "anonymous": false,
      "inputs": [
        {
          "indexed": false,
          "internalType": "uint256",
          "name": "auctionid",
          "type": "uint256"
        },
        {
          "indexed": true,
          "internalType": "address",
          "name": "bidder",
          "type": "address"
        },
        {
          "indexed": true,
          "internalType": "address",
          "name": "seller",
          "type": "address"
        },
        {
          "indexed": false,
          "internalType": "uint256",
          "name": "amount",
          "type": "uint256"
        },
        {
          "indexed": false,
          "internalType": "address",
          "name": "nftaddress",
          "type": "address"
        },
        {
          "indexed": false,
          "internalType": "uint256",
          "name": "tokenid",
          "type": "uint256"
        },
        {
          "indexed": false,
          "internalType": "uint256",
          "name": "expireblock",
          "type": "uint256"
        }
      ],
      "name": "BidAccepted",
      "type": "event"
    },
    {
      "anonymous": false,
      "inputs": [
        {
          "indexed": true,
          "internalType": "address",
          "name": "bidder",
          "type": "address"
        },
        {
          "indexed": true,
          "internalType": "uint256",
          "name": "auctionid",
          "type": "uint256"
        },
        {
          "indexed": false,
          "internalType": "uint256",
          "name": "price",
          "type": "uint256"
        }
      ],
      "name": "Cancelled",
      "type": "event"
    },
    {
      "inputs": [
        {
          "internalType": "address",
          "name": "",
          "type": "address"
        },
        {
          "internalType": "uint256",
          "name": "",
          "type": "uint256"
        }
      ],
      "name": "consumed",
      "outputs": [
        {
          "internalType": "bool",
          "name": "",
          "type": "bool"
        }
      ],
      "stateMutability": "view",
      "type": "function",
      "constant": true
    },
    {
      "inputs": [
        {
          "internalType": "bytes",
          "name": "signature",
          "type": "bytes"
        },
        {
          "internalType": "uint256",
          "name": "auctionid",
          "type": "uint256"
        },
        {
          "internalType": "address",
          "name": "bidder",
          "type": "address"
        },
        {
          "internalType": "uint256",
          "name": "bid",
          "type": "uint256"
        },
        {
          "internalType": "address",
          "name": "nftaddress",
          "type": "address"
        },
        {
          "internalType": "uint256",
          "name": "tokenid",
          "type": "uint256"
        },
        {
          "internalType": "uint256",
          "name": "minbid",
          "type": "uint256"
        },
        {
          "internalType": "uint256",
          "name": "startblock",
          "type": "uint256"
        },
        {
          "internalType": "uint256",
          "name": "expireblock",
          "type": "uint256"
        }
      ],
      "name": "acceptBid",
      "outputs": [],
      "stateMutability": "nonpayable",
      "type": "function"
    },
    {
      "inputs": [
        {
          "internalType": "uint256",
          "name": "auctionid",
          "type": "uint256"
        },
        {
          "internalType": "uint256",
          "name": "price",
          "type": "uint256"
        }
      ],
      "name": "cancelBidsUnderPrice",
      "outputs": [],
      "stateMutability": "nonpayable",
      "type": "function"
    },
    {
      "inputs": [
        {
          "internalType": "bytes32",
          "name": "hash",
          "type": "bytes32"
        },
        {
          "internalType": "bytes",
          "name": "signature",
          "type": "bytes"
        }
      ],
      "name": "recover",
      "outputs": [
        {
          "internalType": "address",
          "name": "",
          "type": "address"
        }
      ],
      "stateMutability": "pure",
      "type": "function",
      "constant": true
    },
    {
      "inputs": [
        {
          "internalType": "bytes32",
          "name": "hash",
          "type": "bytes32"
        }
      ],
      "name": "toEthSignedMessageHash",
      "outputs": [
        {
          "internalType": "bytes32",
          "name": "",
          "type": "bytes32"
        }
      ],
      "stateMutability": "pure",
      "type": "function",
      "constant": true
    },
    {
      "inputs": [
        {
          "internalType": "bytes",
          "name": "signature",
          "type": "bytes"
        },
        {
          "internalType": "uint256",
          "name": "auctionid",
          "type": "uint256"
        },
        {
          "internalType": "address",
          "name": "bidder",
          "type": "address"
        },
        {
          "internalType": "uint256",
          "name": "bid",
          "type": "uint256"
        },
        {
          "internalType": "address",
          "name": "nftaddress",
          "type": "address"
        },
        {
          "internalType": "uint256",
          "name": "tokenid",
          "type": "uint256"
        },
        {
          "internalType": "uint256",
          "name": "minbid",
          "type": "uint256"
        },
        {
          "internalType": "uint256",
          "name": "startblock",
          "type": "uint256"
        },
        {
          "internalType": "uint256",
          "name": "expireblock",
          "type": "uint256"
        }
      ],
      "name": "test",
      "outputs": [
        {
          "internalType": "bool",
          "name": "",
          "type": "bool"
        }
      ],
      "stateMutability": "view",
      "type": "function",
      "constant": true
    }
  ],
  "bytecode": "0x60806040523480156200001157600080fd5b5060405162002286380380620022868339818101604052810190620000379190620000ee565b816000806101000a81548173ffffffffffffffffffffffffffffffffffffffff021916908373ffffffffffffffffffffffffffffffffffffffff16021790555080600160006101000a81548173ffffffffffffffffffffffffffffffffffffffff021916908373ffffffffffffffffffffffffffffffffffffffff1602179055505050620001bf565b600081519050620000d1816200018b565b92915050565b600081519050620000e881620001a5565b92915050565b600080604083850312156200010257600080fd5b60006200011285828601620000c0565b92505060206200012585828601620000d7565b9150509250929050565b60006200013c826200016b565b9050919050565b600062000150826200012f565b9050919050565b600062000164826200012f565b9050919050565b600073ffffffffffffffffffffffffffffffffffffffff82169050919050565b620001968162000143565b8114620001a257600080fd5b50565b620001b08162000157565b8114620001bc57600080fd5b50565b6120b780620001cf6000396000f3fe608060405234801561001057600080fd5b50600436106100625760003560e01c806316d7b3eb1461006757806319045a251461008357806349fcea56146100b3578063918a15cf146100cf578063da357efd146100ff578063e9ba42c71461012f575b600080fd5b610081600480360381019061007c919061136c565b61015f565b005b61009d6004803603810190610098919061123a565b610207565b6040516100aa91906116be565b60405180910390f35b6100cd60048036038101906100c8919061128e565b610224565b005b6100e960048036038101906100e49190611211565b6107c1565b6040516100f6919061172b565b60405180910390f35b610119600480360381019061011491906111ac565b6107d3565b6040516101269190611710565b60405180910390f35b6101496004803603810190610144919061128e565b610802565b6040516101569190611710565b60405180910390f35b80600360003373ffffffffffffffffffffffffffffffffffffffff1673ffffffffffffffffffffffffffffffffffffffff168152602001908152602001600020600084815260200190815260200160002081905550813373ffffffffffffffffffffffffffffffffffffffff167f50f87f46257f76778258778496e8790189350718ebd0d5cb5f0735d3bad2380d836040516101fb919061196d565b60405180910390a35050565b600061021c8284610b3790919063ffffffff16565b905092915050565b43821115610267576040517f08c379a000000000000000000000000000000000000000000000000000000000815260040161025e906117cd565b60405180910390fd5b4381116102a9576040517f08c379a00000000000000000000000000000000000000000000000000000000081526004016102a0906118ad565b60405180910390fd5b858311156102ec576040517f08c379a00000000000000000000000000000000000000000000000000000000081526004016102e39061188d565b60405180910390fd5b3373ffffffffffffffffffffffffffffffffffffffff168773ffffffffffffffffffffffffffffffffffffffff16141561035b576040517f08c379a0000000000000000000000000000000000000000000000000000000008152600401610352906118ed565b60405180910390fd5b600088304689898989898960405160200161037e99989796959493929190611988565b6040516020818303038152906040528051906020012090506103a86103a2826107c1565b8b610207565b73ffffffffffffffffffffffffffffffffffffffff168873ffffffffffffffffffffffffffffffffffffffff1614610415576040517f08c379a000000000000000000000000000000000000000000000000000000000815260040161040c9061194d565b60405180910390fd5b600260008973ffffffffffffffffffffffffffffffffffffffff1673ffffffffffffffffffffffffffffffffffffffff16815260200190815260200160002060008a815260200190815260200160002060009054906101000a900460ff16156104b3576040517f08c379a00000000000000000000000000000000000000000000000000000000081526004016104aa9061180d565b60405180910390fd5b600360008973ffffffffffffffffffffffffffffffffffffffff1673ffffffffffffffffffffffffffffffffffffffff16815260200190815260200160002060008a8152602001908152602001600020548711610545576040517f08c379a000000000000000000000000000000000000000000000000000000000815260040161053c9061182d565b60405180910390fd5b60008690506001600260008b73ffffffffffffffffffffffffffffffffffffffff1673ffffffffffffffffffffffffffffffffffffffff16815260200190815260200160002060008c815260200190815260200160002060006101000a81548160ff0219169083151502179055506105f660008054906101000a900473ffffffffffffffffffffffffffffffffffffffff168a33600a8c6105e69190611afb565b8c6105f19190611b2c565b610c01565b6106d860008054906101000a900473ffffffffffffffffffffffffffffffffffffffff168a600160009054906101000a900473ffffffffffffffffffffffffffffffffffffffff1673ffffffffffffffffffffffffffffffffffffffff16639e942ace8a6040518263ffffffff1660e01b8152600401610676919061196d565b60206040518083038186803b15801561068e57600080fd5b505afa1580156106a2573d6000803e3d6000fd5b505050506040513d601f19601f820116820180604052508101906106c69190611183565b600a8c6106d39190611afb565b610c01565b8073ffffffffffffffffffffffffffffffffffffffff166342842e0e338b896040518463ffffffff1660e01b8152600401610715939291906116d9565b600060405180830381600087803b15801561072f57600080fd5b505af1158015610743573d6000803e3d6000fd5b505050503373ffffffffffffffffffffffffffffffffffffffff168973ffffffffffffffffffffffffffffffffffffffff167f892a66c9301632478fed9b6fb1ff029dc070dd25bf2a3f8fd1688a4399bc46bc8c8b858b896040516107ac959493929190611a15565b60405180910390a35050505050505050505050565b60006107cc82610c8a565b9050919050565b60026020528160005260406000206020528060005260406000206000915091509054906101000a900460ff1681565b600043831115610847576040517f08c379a000000000000000000000000000000000000000000000000000000000815260040161083e906117cd565b60405180910390fd5b438211610889576040517f08c379a0000000000000000000000000000000000000000000000000000000008152600401610880906118ad565b60405180910390fd5b868411156108cc576040517f08c379a00000000000000000000000000000000000000000000000000000000081526004016108c39061188d565b60405180910390fd5b3373ffffffffffffffffffffffffffffffffffffffff168873ffffffffffffffffffffffffffffffffffffffff16141561093b576040517f08c379a0000000000000000000000000000000000000000000000000000000008152600401610932906118ed565b60405180910390fd5b60008930468a8a8a8a8a8a60405160200161095e99989796959493929190611988565b604051602081830303815290604052805190602001209050610988610982826107c1565b8c610207565b73ffffffffffffffffffffffffffffffffffffffff168973ffffffffffffffffffffffffffffffffffffffff16146109f5576040517f08c379a00000000000000000000000000000000000000000000000000000000081526004016109ec9061194d565b60405180910390fd5b600260008a73ffffffffffffffffffffffffffffffffffffffff1673ffffffffffffffffffffffffffffffffffffffff16815260200190815260200160002060008b815260200190815260200160002060009054906101000a900460ff1615610a93576040517f08c379a0000000000000000000000000000000000000000000000000000000008152600401610a8a9061180d565b60405180910390fd5b600360008a73ffffffffffffffffffffffffffffffffffffffff1673ffffffffffffffffffffffffffffffffffffffff16815260200190815260200160002060008b8152602001908152602001600020548811610b25576040517f08c379a0000000000000000000000000000000000000000000000000000000008152600401610b1c9061182d565b60405180910390fd5b60019150509998505050505050505050565b600080600080604185511415610b64576020850151925060408501519150606085015160001a9050610bea565b604085511415610bae576040850151602086015193507f7fffffffffffffffffffffffffffffffffffffffffffffffffffffffffffffff81169250601b8160ff1c01915050610be9565b6040517f08c379a0000000000000000000000000000000000000000000000000000000008152600401610be0906117ed565b60405180910390fd5b5b610bf686828585610cba565b935050505092915050565b610c84846323b872dd60e01b858585604051602401610c22939291906116d9565b604051602081830303815290604052907bffffffffffffffffffffffffffffffffffffffffffffffffffffffff19166020820180517bffffffffffffffffffffffffffffffffffffffffffffffffffffffff8381831617835250505050610e45565b50505050565b600081604051602001610c9d9190611698565b604051602081830303815290604052805190602001209050919050565b60007f7fffffffffffffffffffffffffffffff5d576e7357a4501ddfe92f46681b20a08260001c1115610d22576040517f08c379a0000000000000000000000000000000000000000000000000000000008152600401610d199061184d565b60405180910390fd5b601b8460ff161480610d375750601c8460ff16145b610d76576040517f08c379a0000000000000000000000000000000000000000000000000000000008152600401610d6d906118cd565b60405180910390fd5b600060018686868660405160008152602001604052604051610d9b9493929190611746565b6020604051602081039080840390855afa158015610dbd573d6000803e3d6000fd5b505050602060405103519050600073ffffffffffffffffffffffffffffffffffffffff168173ffffffffffffffffffffffffffffffffffffffff161415610e39576040517f08c379a0000000000000000000000000000000000000000000000000000000008152600401610e30906117ad565b60405180910390fd5b80915050949350505050565b6000610ea7826040518060400160405280602081526020017f5361666545524332303a206c6f772d6c6576656c2063616c6c206661696c65648152508573ffffffffffffffffffffffffffffffffffffffff16610f0c9092919063ffffffff16565b9050600081511115610f075780806020019051810190610ec791906111e8565b610f06576040517f08c379a0000000000000000000000000000000000000000000000000000000008152600401610efd9061192d565b60405180910390fd5b5b505050565b6060610f1b8484600085610f24565b90509392505050565b606082471015610f69576040517f08c379a0000000000000000000000000000000000000000000000000000000008152600401610f609061186d565b60405180910390fd5b610f7285611038565b610fb1576040517f08c379a0000000000000000000000000000000000000000000000000000000008152600401610fa89061190d565b60405180910390fd5b6000808673ffffffffffffffffffffffffffffffffffffffff168587604051610fda9190611681565b60006040518083038185875af1925050503d8060008114611017576040519150601f19603f3d011682016040523d82523d6000602084013e61101c565b606091505b509150915061102c82828661104b565b92505050949350505050565b600080823b905060008111915050919050565b6060831561105b578290506110ab565b60008351111561106e5782518084602001fd5b816040517f08c379a00000000000000000000000000000000000000000000000000000000081526004016110a2919061178b565b60405180910390fd5b9392505050565b60006110c56110c084611a8d565b611a68565b9050828152602081018484840111156110dd57600080fd5b6110e8848285611bbf565b509392505050565b6000813590506110ff81612025565b92915050565b60008151905061111481612025565b92915050565b6000815190506111298161203c565b92915050565b60008135905061113e81612053565b92915050565b600082601f83011261115557600080fd5b81356111658482602086016110b2565b91505092915050565b60008135905061117d8161206a565b92915050565b60006020828403121561119557600080fd5b60006111a384828501611105565b91505092915050565b600080604083850312156111bf57600080fd5b60006111cd858286016110f0565b92505060206111de8582860161116e565b9150509250929050565b6000602082840312156111fa57600080fd5b60006112088482850161111a565b91505092915050565b60006020828403121561122357600080fd5b60006112318482850161112f565b91505092915050565b6000806040838503121561124d57600080fd5b600061125b8582860161112f565b925050602083013567ffffffffffffffff81111561127857600080fd5b61128485828601611144565b9150509250929050565b60008060008060008060008060006101208a8c0312156112ad57600080fd5b60008a013567ffffffffffffffff8111156112c757600080fd5b6112d38c828d01611144565b99505060206112e48c828d0161116e565b98505060406112f58c828d016110f0565b97505060606113068c828d0161116e565b96505060806113178c828d016110f0565b95505060a06113288c828d0161116e565b94505060c06113398c828d0161116e565b93505060e061134a8c828d0161116e565b92505061010061135c8c828d0161116e565b9150509295985092959850929598565b6000806040838503121561137f57600080fd5b600061138d8582860161116e565b925050602061139e8582860161116e565b9150509250929050565b6113b181611b60565b82525050565b6113c081611b72565b82525050565b6113cf81611b7e565b82525050565b6113e66113e182611b7e565b611c32565b82525050565b60006113f782611abe565b6114018185611ad4565b9350611411818560208601611bce565b80840191505092915050565b600061142882611ac9565b6114328185611adf565b9350611442818560208601611bce565b61144b81611cc9565b840191505092915050565b6000611463601883611adf565b915061146e82611cda565b602082019050919050565b6000611486601f83611adf565b915061149182611d03565b602082019050919050565b60006114a9601f83611adf565b91506114b482611d2c565b602082019050919050565b60006114cc601c83611af0565b91506114d782611d55565b601c82019050919050565b60006114ef601f83611adf565b91506114fa82611d7e565b602082019050919050565b6000611512601c83611adf565b915061151d82611da7565b602082019050919050565b6000611535602283611adf565b915061154082611dd0565b604082019050919050565b6000611558602683611adf565b915061156382611e1f565b604082019050919050565b600061157b602383611adf565b915061158682611e6e565b604082019050919050565b600061159e601983611adf565b91506115a982611ebd565b602082019050919050565b60006115c1602283611adf565b91506115cc82611ee6565b604082019050919050565b60006115e4601683611adf565b91506115ef82611f35565b602082019050919050565b6000611607601d83611adf565b915061161282611f5e565b602082019050919050565b600061162a602a83611adf565b915061163582611f87565b604082019050919050565b600061164d602483611adf565b915061165882611fd6565b604082019050919050565b61166c81611ba8565b82525050565b61167b81611bb2565b82525050565b600061168d82846113ec565b915081905092915050565b60006116a3826114bf565b91506116af82846113d5565b60208201915081905092915050565b60006020820190506116d360008301846113a8565b92915050565b60006060820190506116ee60008301866113a8565b6116fb60208301856113a8565b6117086040830184611663565b949350505050565b600060208201905061172560008301846113b7565b92915050565b600060208201905061174060008301846113c6565b92915050565b600060808201905061175b60008301876113c6565b6117686020830186611672565b61177560408301856113c6565b61178260608301846113c6565b95945050505050565b600060208201905081810360008301526117a5818461141d565b905092915050565b600060208201905081810360008301526117c681611456565b9050919050565b600060208201905081810360008301526117e681611479565b9050919050565b600060208201905081810360008301526118068161149c565b9050919050565b60006020820190508181036000830152611826816114e2565b9050919050565b6000602082019050818103600083015261184681611505565b9050919050565b6000602082019050818103600083015261186681611528565b9050919050565b600060208201905081810360008301526118868161154b565b9050919050565b600060208201905081810360008301526118a68161156e565b9050919050565b600060208201905081810360008301526118c681611591565b9050919050565b600060208201905081810360008301526118e6816115b4565b9050919050565b60006020820190508181036000830152611906816115d7565b9050919050565b60006020820190508181036000830152611926816115fa565b9050919050565b600060208201905081810360008301526119468161161d565b9050919050565b6000602082019050818103600083015261196681611640565b9050919050565b60006020820190506119826000830184611663565b92915050565b60006101208201905061199e600083018c611663565b6119ab602083018b6113a8565b6119b8604083018a611663565b6119c56060830189611663565b6119d260808301886113a8565b6119df60a0830187611663565b6119ec60c0830186611663565b6119f960e0830185611663565b611a07610100830184611663565b9a9950505050505050505050565b600060a082019050611a2a6000830188611663565b611a376020830187611663565b611a4460408301866113a8565b611a516060830185611663565b611a5e6080830184611663565b9695505050505050565b6000611a72611a83565b9050611a7e8282611c01565b919050565b6000604051905090565b600067ffffffffffffffff821115611aa857611aa7611c9a565b5b611ab182611cc9565b9050602081019050919050565b600081519050919050565b600081519050919050565b600081905092915050565b600082825260208201905092915050565b600081905092915050565b6000611b0682611ba8565b9150611b1183611ba8565b925082611b2157611b20611c6b565b5b828204905092915050565b6000611b3782611ba8565b9150611b4283611ba8565b925082821015611b5557611b54611c3c565b5b828203905092915050565b6000611b6b82611b88565b9050919050565b60008115159050919050565b6000819050919050565b600073ffffffffffffffffffffffffffffffffffffffff82169050919050565b6000819050919050565b600060ff82169050919050565b82818337600083830152505050565b60005b83811015611bec578082015181840152602081019050611bd1565b83811115611bfb576000848401525b50505050565b611c0a82611cc9565b810181811067ffffffffffffffff82111715611c2957611c28611c9a565b5b80604052505050565b6000819050919050565b7f4e487b7100000000000000000000000000000000000000000000000000000000600052601160045260246000fd5b7f4e487b7100000000000000000000000000000000000000000000000000000000600052601260045260246000fd5b7f4e487b7100000000000000000000000000000000000000000000000000000000600052604160045260246000fd5b6000601f19601f8301169050919050565b7f45434453413a20696e76616c6964207369676e61747572650000000000000000600082015250565b7f7a41756374696f6e3a2061756374696f6e206861736e74207374617274656400600082015250565b7f45434453413a20696e76616c6964207369676e6174757265206c656e67746800600082015250565b7f19457468657265756d205369676e6564204d6573736167653a0a333200000000600082015250565b7f7a41756374696f6e3a206461746120616c726561647920636f6e73756d656400600082015250565b7f7a41756374696f6e3a2062656c6f772063616e63656c20707269636500000000600082015250565b7f45434453413a20696e76616c6964207369676e6174757265202773272076616c60008201527f7565000000000000000000000000000000000000000000000000000000000000602082015250565b7f416464726573733a20696e73756666696369656e742062616c616e636520666f60008201527f722063616c6c0000000000000000000000000000000000000000000000000000602082015250565b7f7a41756374696f6e3a2063616e7420616363657074206269642062656c6f772060008201527f6d696e0000000000000000000000000000000000000000000000000000000000602082015250565b7f7a41756374696f6e3a2061756374696f6e206578706972656400000000000000600082015250565b7f45434453413a20696e76616c6964207369676e6174757265202776272076616c60008201527f7565000000000000000000000000000000000000000000000000000000000000602082015250565b7f7a41756374696f6e3a2073616c6520746f2073656c6600000000000000000000600082015250565b7f416464726573733a2063616c6c20746f206e6f6e2d636f6e7472616374000000600082015250565b7f5361666545524332303a204552433230206f7065726174696f6e20646964206e60008201527f6f74207375636365656400000000000000000000000000000000000000000000602082015250565b7f7a41756374696f6e3a207265636f766572656420696e636f727265637420626960008201527f6464657200000000000000000000000000000000000000000000000000000000602082015250565b61202e81611b60565b811461203957600080fd5b50565b61204581611b72565b811461205057600080fd5b50565b61205c81611b7e565b811461206757600080fd5b50565b61207381611ba8565b811461207e57600080fd5b5056fea2646970667358221220835ca286012371e661641d3fb737d97c1cd9c198935d7fa9107943e5b523dea264736f6c63430008040033",
  "immutableReferences": {},
  "source": "pragma solidity ^0.8.4;\r\n\r\nimport \"@openzeppelin/contracts/utils/cryptography/ECDSA.sol\";\r\nimport \"@openzeppelin/contracts/token/ERC20/utils/SafeERC20.sol\";\r\nimport \"@openzeppelin/contracts/token/ERC721/IERC721.sol\";\r\nimport \"./IRegistrar.sol\";\r\n\r\ncontract ZauctionSupportingZNS{\r\n    using ECDSA for bytes32;\r\n\r\n    IERC20 weth;\r\n    IRegistrar registrar;\r\n    mapping(address => mapping(uint256 => bool)) public consumed;\r\n    mapping(address => mapping(uint256 => uint256)) cancelprice;\r\n    \r\n    event Cancelled(address indexed bidder, uint256 indexed auctionid, uint256 price);\r\n    event BidAccepted(\r\n        uint256 auctionid, \r\n        address indexed bidder, \r\n        address indexed seller, \r\n        uint256 amount, \r\n        address nftaddress, \r\n        uint256 tokenid, \r\n        uint256 expireblock\r\n    );\r\n\r\n    constructor(IERC20 wethAddress, IRegistrar registrarAddress) {\r\n        weth = wethAddress;\r\n        registrar = registrarAddress;\r\n    }\r\n\r\n    /// recovers bidder's signature based on seller's proposed data and, if bid data hash matches the message hash, transfers nft and payment\r\n    /// @param signature type encoded message signed by the bidder\r\n    /// @param auctionid unique per address auction identifier chosen by seller\r\n    /// @param bidder address of who the seller says the bidder is, for confirmation of the recovered bidder\r\n    /// @param bid weth amount bid\r\n    /// @param nftaddress contract address of the nft we are transferring\r\n    /// @param tokenid token id we are transferring\r\n    /// @param minbid minimum bid allowed\r\n    /// @param startblock block number at which acceptBid starts working\r\n    /// @param expireblock block number at which acceptBid stops working\r\n    function acceptBid(\r\n        bytes memory signature,\r\n        uint256 auctionid, \r\n        address bidder, \r\n        uint256 bid, \r\n        address nftaddress, \r\n        uint256 tokenid, \r\n        uint256 minbid,\r\n        uint256 startblock,\r\n        uint256 expireblock) external \r\n    {    \r\n        require(startblock <= block.number, \"zAuction: auction hasnt started\");\r\n        require(expireblock > block.number, \"zAuction: auction expired\");\r\n        require(minbid <= bid, \"zAuction: cant accept bid below min\");\r\n        require(bidder != msg.sender, \"zAuction: sale to self\");\r\n        //require(registrar.isDomainMetadataLocked(tokenid), \"zAuction: ZNS domain metadata must be locked\");\r\n\r\n        bytes32 data = keccak256(abi.encode(\r\n            auctionid, address(this), block.chainid, bid, nftaddress, tokenid, minbid, startblock, expireblock));\r\n        require(bidder == recover(toEthSignedMessageHash(data), signature),\r\n            \"zAuction: recovered incorrect bidder\");\r\n        require(!consumed[bidder][auctionid], \"zAuction: data already consumed\");\r\n        require(bid > cancelprice[bidder][auctionid], \"zAuction: below cancel price\");\r\n\r\n        IERC721 nftcontract = IERC721(nftaddress);\r\n        consumed[bidder][auctionid] = true;\r\n        SafeERC20.safeTransferFrom(weth, bidder, msg.sender, bid - bid / 10);\r\n        SafeERC20.safeTransferFrom(weth, bidder, registrar.minterOf(tokenid), bid / 10);\r\n        nftcontract.safeTransferFrom(msg.sender, bidder, tokenid);\r\n        emit BidAccepted(auctionid, bidder, msg.sender, bid, address(nftcontract), tokenid, expireblock);\r\n    }\r\n    \r\n    /// invalidates all sender's bids at and under given price\r\n    /// @param auctionid unique per address auction identifier chosen by seller\r\n    /// @param price weth amount to cancel at and under\r\n    function cancelBidsUnderPrice(uint256  auctionid, uint256 price) external {\r\n        cancelprice[msg.sender][auctionid] = price;\r\n        emit Cancelled(msg.sender, auctionid, price);\r\n    }\r\n\r\n    function recover(bytes32 hash, bytes memory signature) public pure returns (address) {\r\n        return hash.recover(signature);\r\n    }\r\n\r\n    function toEthSignedMessageHash(bytes32 hash) public pure returns (bytes32) {\r\n        return hash.toEthSignedMessageHash();\r\n    }\r\n\r\n    function test(\r\n        bytes memory signature,\r\n        uint256 auctionid, \r\n        address bidder, \r\n        uint256 bid, \r\n        address nftaddress, \r\n        uint256 tokenid, \r\n        uint256 minbid,\r\n        uint256 startblock,\r\n        uint256 expireblock) public view returns (bool) \r\n    {\r\n        require(startblock <= block.number, \"zAuction: auction hasnt started\");\r\n        require(expireblock > block.number, \"zAuction: auction expired\");\r\n        require(minbid <= bid, \"zAuction: cant accept bid below min\");\r\n        require(bidder != msg.sender, \"zAuction: sale to self\");\r\n        //require(registrar.isDomainMetadataLocked(tokenid), \"zAuction: ZNS domain metadata must be locked\");\r\n\r\n        bytes32 data = keccak256(abi.encode(\r\n            auctionid, address(this), block.chainid, bid, nftaddress, tokenid, minbid, startblock, expireblock));\r\n        require(bidder == recover(toEthSignedMessageHash(data), signature),\r\n            \"zAuction: recovered incorrect bidder\");\r\n        require(!consumed[bidder][auctionid], \"zAuction: data already consumed\");\r\n        require(bid > cancelprice[bidder][auctionid], \"zAuction: below cancel price\");\r\n        return true;\r\n    }\r\n}",
  "sourcePath": "C:/Users/durien/dev/zAuction-v2/contracts/zns/ZauctionSupportingZNS.sol",
  "compiler": {
    "name": "solc",
    "version": "0.8.4+commit.c7e474f2.Emscripten.clang"
  },
  "schemaVersion": "3.4.1",
  "updatedAt": "2021-07-14T17:56:32.118Z",
  "networkType": "ethereum",
  "devdoc": {
    "kind": "dev",
    "methods": {
      "acceptBid(bytes,uint256,address,uint256,address,uint256,uint256,uint256,uint256)": {
        "params": {
          "auctionid": "unique per address auction identifier chosen by seller",
          "bid": "weth amount bid",
          "bidder": "address of who the seller says the bidder is, for confirmation of the recovered bidder",
          "expireblock": "block number at which acceptBid stops working",
          "minbid": "minimum bid allowed",
          "nftaddress": "contract address of the nft we are transferring",
          "signature": "type encoded message signed by the bidder",
          "startblock": "block number at which acceptBid starts working",
          "tokenid": "token id we are transferring"
        }
      },
      "cancelBidsUnderPrice(uint256,uint256)": {
        "params": {
          "auctionid": "unique per address auction identifier chosen by seller",
          "price": "weth amount to cancel at and under"
        }
      }
    },
    "version": 1
  },
  "userdoc": {
    "kind": "user",
    "methods": {
      "acceptBid(bytes,uint256,address,uint256,address,uint256,uint256,uint256,uint256)": {
        "notice": "recovers bidder's signature based on seller's proposed data and, if bid data hash matches the message hash, transfers nft and payment"
      },
      "cancelBidsUnderPrice(uint256,uint256)": {
        "notice": "invalidates all sender's bids at and under given price"
      }
    },
    "version": 1
  }
}